{
  "txid": "9a222f0e9e176e5a70c95dbbe59afce6607bb5a50c7ef96ea91fa49f8f14525e",
  "transactionDetails": {
    "txid": "9a222f0e9e176e5a70c95dbbe59afce6607bb5a50c7ef96ea91fa49f8f14525e",
    "hash": "070f3d5a71b325108dbfb5ab102c73533e52aaff73ba6d134fcad8e9e47190f6",
    "version": 2,
    "size": 261,
    "vsize": 179,
    "weight": 714,
    "locktime": 0,
    "vin": [
      {
        "txid": "fb8fa439bee4da6ceb296f5d0f9aea8a44bd4441f6e06cc8bc3c01f6e733ef1a",
        "vout": 2,
        "scriptSig": {
          "asm": "",
          "hex": ""
        },
        "txinwitness": [
          "304502210085bf037c94b9545762af2d2c170dd2682f8e1feee648e33f7cc5af80f3fabb3a022015212fe847461ae6f5cc31e50d55813f6958d70a31b448e11a5f5ed9f4713ebf01",
          "02a05e69dd3aff34437c5031e3b1b9a28ac596aa1628be5d1c4a02ce6b1942ab5d"
        ],
        "sequence": 4294967295
      }
    ],
    "vout": [
      {
        "value": 0.00000546,
        "n": 0,
        "scriptPubKey": {
          "asm": "1 bf13a8c907d6d6b6c4af423786e78e7c829ad668ef5fd71807371f69af8ea0ba",
          "desc": "rawtr(bf13a8c907d6d6b6c4af423786e78e7c829ad668ef5fd71807371f69af8ea0ba)#anrmqaud",
          "hex": "5120bf13a8c907d6d6b6c4af423786e78e7c829ad668ef5fd71807371f69af8ea0ba",
          "address": "bc1phuf63jg86mttd390ggmcdeuw0jpf44ngaa0awxq8xu0kntuw5zaqrwzusg",
          "type": "witness_v1_taproot"
        }
      },
      {
        "value": 0,
        "n": 1,
        "scriptPubKey": {
          "asm": "OP_RETURN 13 ff7f818cec82d08bc0a88281d215",
          "desc": "raw(6a5d0eff7f818cec82d08bc0a88281d215)#g05e0juy",
          "hex": "6a5d0eff7f818cec82d08bc0a88281d215",
          "type": "nulldata"
        }
      },
      {
        "value": 0.00031684,
        "n": 2,
        "scriptPubKey": {
          "asm": "0 4e20fceffd1c5ceac8af04b2b60acafac97dccdb",
          "desc": "addr(bc1qfcs0emlar3ww4j90qjetvzk2ltyhmnxmkwnmv5)#vywatw9h",
          "hex": "00144e20fceffd1c5ceac8af04b2b60acafac97dccdb",
          "address": "bc1qfcs0emlar3ww4j90qjetvzk2ltyhmnxmkwnmv5",
          "type": "witness_v0_keyhash"
        }
      }
    ],
    "hex": "020000000001011aef33e7f6013cbcc86ce0f64144bd448aea9a0f5d6f29eb6cdae4be39a48ffb0200000000ffffffff032202000000000000225120bf13a8c907d6d6b6c4af423786e78e7c829ad668ef5fd71807371f69af8ea0ba0000000000000000116a5d0eff7f818cec82d08bc0a88281d215c47b0000000000001600144e20fceffd1c5ceac8af04b2b60acafac97dccdb0248304502210085bf037c94b9545762af2d2c170dd2682f8e1feee648e33f7cc5af80f3fabb3a022015212fe847461ae6f5cc31e50d55813f6958d70a31b448e11a5f5ed9f4713ebf012102a05e69dd3aff34437c5031e3b1b9a28ac596aa1628be5d1c4a02ce6b1942ab5d00000000",
    "blockhash": "000000000000000000024d909d7de40c536e730e766c7687e32baac2a9f9133d",
    "confirmations": 2,
    "time": 1741734715,
    "blocktime": 1741734715
  },
  "opReturnData": {
    "dataHex": "ff7f818cec82d08bc0a88281d215"
  },
  "protorunesData": [],
  "blockHeight": 887380,
  "timestamp": "2025-03-11T23:43:47.191Z"
}